:100000000C942A000C9447000C9447000C94470071
:100010000C9447000C9447000C9447000C94470044
:100020000C9447000C9447000C9447000C94470034
:100030000C9447000C9447000C9447000C94470024
:100040000C9447000C9447000C9447000C94470014
:100050000C94470011241FBECFE5D8E0DEBFCDBF12
:1000600012E0A0E6B0E0EEE3FBE702C005900D92DF
:10007000A434B107D9F712E0A4E4B2E001C01D92A4
:10008000A138B107E1F70E94FB080C949D3D0C9448
:100090000000EF92FF920F93DF93CF93CDB7DEB7BF
:1000A00060970FB6F894DEBF0FBECDBFA82F002318
:1000B00009F461C07E010894E11CF11C88E0F7019D
:1000C00011928A95E9F729833A834B835C836D8388
:1000D0007E83AF83988780E2801BE82FFF27E7FDB0
:1000E000F0954D815E816F817885181684F01D86AC
:1000F0001E861F86188A882799278E1B9F0B04C08F
:1001000076956795579547958A95D2F728C0202F01
:10011000332727FD3095DB01CA01022E04C0B695B6
:10012000A795979587950A94D2F78D879E87AF8775
:10013000B88B04C0440F551F661F771FEA95D2F78E
:1001400089819A81AB81BC8104C0B695A7959795AA
:1001500087952A95D2F7482B592B6A2B7B2B4987F9
:100160005A876B877C8729853A854B855C856D85A9
:100170007E85AF8598898A2F60960FB6F894DEBF8A
:100180000FBECDBFCF91DF910F91FF90EF900895FB
:10019000EF92FF920F93DF93CF93CDB7DEB76097C7
:1001A0000FB6F894DEBF0FBECDBFA82F002309F411
:1001B00061C07E010894E11CF11C88E0F7011192F6
:1001C0008A95E9F729833A834B835C836D837E8329
:1001D000AF83988780E2801BE82FFF27E7FDF0952B
:1001E00049815A816B817C81181684F019861A86A0
:1001F0001B861C86882799278E1B9F0B04C0440FE3
:10020000551F661F771F8A95D2F728C0202F3327E6
:1002100027FD3095DB01CA01022E04C0880F991F0B
:10022000AA1FBB1F0A94D2F789879A87AB87BC871E
:1002300004C07695679557954795EA95D2F78D81D5
:100240009E81AF81B88504C0880F991FAA1FBB1F6C
:100250002A95D2F7482B592B6A2B7B2B4D875E872B
:100260006F87788B29853A854B855C856D857E8582
:10027000AF8598898A2F60960FB6F894DEBF0FBEBF
:10028000CDBFCF91DF910F91FF90EF900895EF9246
:10029000FF920F931F937B018C0120E030E040E040
:1002A0005FE40E94530588238CF0C801B70120E069
:1002B00030E040E05FE40E94BF020E9411069B0113
:1002C000AC01205030404040504806C0C801B70142
:1002D0000E9411069B01AC01B901CA011F910F9147
:1002E000FF90EF900895A0E0B0E0E9E7F1E00C9412
:1002F000F73BDC012B01FA019C91923008F439C1E3
:10030000EB018881823008F433C1943069F4843081
:1003100009F02FC111969C9111978981981709F4C2
:1003200028C1A3ECB0E025C1843009F421C182309A
:10033000A9F4923009F01DC19A01AD0188E0EA01EB
:100340000990AE01E90109929E018150C1F7E201D5
:10035000898111969C918923818308C1923009F487
:1003600007C112962D903C901397EB018A819B81D7
:100370001496AD90BD90CD90DC901797EC80FD80E9
:100380000E811F819101281B390BB90137FF04C071
:1003900066277727621B730B603271050CF061C012
:1003A000121613066CF537014801062E04C0969408
:1003B0008794779467940A94D2F721E030E040E084
:1003C00050E004C0220F331F441F551F6A95D2F717
:1003D00021503040404050402E213F2140235123A6
:1003E000211531054105510521F021E030E040E0C3
:1003F00050E079018A01E628F728082919293CC02C
:10040000232BD1F1260E371E35014601062E04C0DE
:1004100096948794779467940A94D2F721E030E019
:1004200040E050E004C0220F331F441F551F6A955F
:10043000D2F721503040404050402A213B214C21EE
:100440005D21211531054105510521F021E030E004
:1004500040E050E059016A01A628B728C828D928E9
:100460000BC0821593052CF01C01AA24BB24650146
:1004700003C0EE24FF24870111969C91D2011196AE
:100480008C91981709F445C0992339F0A801970178
:100490002A193B094C095D0906C0A60195012E19D0
:1004A0003F09400B510B57FD08C011823382228255
:1004B00024833583468357831DC081E08183338243
:1004C000228288279927DC01821B930BA40BB50B92
:1004D00084839583A683B7830DC0220F331F441FE7
:1004E000551F2483358346835783828193810197E7
:1004F000938382832481358146815781DA01C90142
:100500000197A109B1098F5F9F4FAF4FBF4328F3F8
:100510000BC0918333822282EA0CFB1C0C1D1D1D33
:10052000E482F5820683178383E08083248135810A
:100530004681578157FF1AC0C901AA2797FDA09588
:10054000BA2F81709070A070B0705695479537950E
:100550002795822B932BA42BB52B84839583A6837D
:10056000B78382819381019693838283DF0101C0E7
:10057000D201CD01CDB7DEB7E2E10C94133CA0E28D
:10058000B0E0E5ECF2E00C94033C69837A838B8362
:100590009C832D833E834F835887E9E0EE2EF12C18
:1005A000EC0EFD1ECE010196B7010E9402088E01DD
:1005B0000F5E1F4FCE010596B8010E9402088A897E
:1005C00091E089278A8BC701B801AE01475E5F4F72
:1005D0000E9473010E942D07A096E6E00C941F3C38
:1005E000A0E2B0E0E6EFF2E00C94033C69837A838A
:1005F0008B839C832D833E834F835887F9E0EF2EB6
:10060000F12CEC0EFD1ECE010196B7010E940208EE
:100610008E010F5E1F4FCE010596B8010E940208A1
:10062000C701B801AE01475E5F4F0E9473010E948F
:100630002D07A096E6E00C941F3CA0E2B0E0E3E2B8
:10064000F3E00C94F73B69837A838B839C832D833F
:100650003E834F835887CE010196BE01675F7F4F6F
:100660000E940208CE010596BE016F5E7F4F0E9478
:1006700002089985923088F089898230C8F09430D8
:1006800019F4823051F404C0843029F4923081F49A
:1006900083EC90E0C6C0923049F420E09A858A89C4
:1006A000981321E02A87CE010996BBC0823049F415
:1006B00020E09A858A89981321E02A8BCE01419601
:1006C000B0C02D843E844F8458886D887E888F8882
:1006D000988CEE24FF248701AA24BB24650140E006
:1006E00050E060E070E0E0E0F0E0C1018170907007
:1006F000892BE9F0E60CF71C081D191D9A01AB01C6
:100700002A0D3B1D4C1D5D1D80E090E0A0E0B0E097
:10071000E614F7040805190520F481E090E0A0E054
:10072000B0E0BA01A901480F591F6A1F7B1FAA0C2C
:10073000BB1CCC1CDD1C97FE08C081E090E0A0E053
:10074000B0E0A82AB92ACA2ADB2A3196E032F1059C
:1007500049F0660C771C881C991C56944794379472
:100760002794C3CFFA85EA892B893C898B859C85A0
:10077000280F391F2E5F3F4F17C0CA01817090703C
:10078000892B61F016950795F794E79480E090E047
:10079000A0E0B0E8E82AF92A0A2B1B2B769567958A
:1007A000579547952F5F3F4F77FDE7CF0CC0440F1C
:1007B000551F661F771F17FD4160EE0CFF1C001FC1
:1007C000111F21503040403090E0590790E06907F8
:1007D00090E4790760F32B8F3C8FDB01CA018F77A0
:1007E0009070A070B07080349105A105B10561F4DE
:1007F00047FD0AC0E114F1040105110529F0405C30
:100800005F4F6F4F7F4F40781A8EFE1711F081E0D7
:100810008A8F4D8F5E8F6F8F78A383E0898FCE0193
:1008200049960E942D07A096E2E10C94133CA8E1A2
:10083000B0E0EDE1F4E00C94FF3B69837A838B83B5
:100840009C832D833E834F835887B9E0EB2EF12C98
:10085000EC0EFD1ECE010196B7010E9402088E012A
:100860000F5E1F4FCE010596B8010E940208298530
:10087000223008F47EC03989323010F4B8017CC0CF
:100880008A859A8989278A87243011F0223031F4A9
:10089000231709F06EC063EC70E06EC0343039F499
:1008A0001D861E861F86188A1C861B8604C0323051
:1008B00021F484E08987B7015FC02B853C858B8953
:1008C0009C89281B390B3C872B87ED84FE840F8580
:1008D0001889AD88BE88CF88D88CEA14FB040C0533
:1008E0001D0540F4EE0CFF1C001F111F215030406D
:1008F0003C872B8720E030E040E050E080E090E053
:10090000A0E0B0E460E070E0EA14FB040C051D0513
:1009100040F0282B392B4A2B5B2BEA18FB080C09DB
:100920001D09B695A79597958795EE0CFF1C001F9E
:10093000111F6F5F7F4F6F31710531F7DA01C90108
:100940008F779070A070B07080349105A105B105CB
:1009500061F427FD0AC0E114F1040105110529F035
:10096000205C3F4F4F4F5F4F20782D873E874F874A
:10097000588BBE01675F7F4FCB010E942D076896A1
:10098000EAE00C941B3CA8E1B0E0E9ECF4E00C9444
:10099000033C69837A838B839C832D833E834F83BF
:1009A000588789E0E82EF12CEC0EFD1ECE01019651
:1009B000B7010E9402088E010F5E1F4FCE010596FF
:1009C000B8010E9402088985823040F0898982300E
:1009D00028F0C701B8010E947A0801C081E068963A
:1009E000E6E00C941F3CA8E1B0E0E9EFF4E00C94E1
:1009F000033C69837A838B839C832D833E834F835F
:100A0000588789E0E82EF12CEC0EFD1ECE010196F0
:100A1000B7010E9402088E010F5E1F4FCE0105969E
:100A2000B8010E9402088985823040F089898230AD
:100A300028F0C701B8010E947A0801C081E06896D9
:100A4000E6E00C941F3CA8E1B0E0E9E2F5E00C948C
:100A5000033C69837A838B839C832D833E834F83FE
:100A6000588789E0E82EF12CEC0EFD1ECE01019690
:100A7000B7010E9402088E010F5E1F4FCE0105963E
:100A8000B8010E9402088985823040F0898982304D
:100A900028F0C701B8010E947A0801C08FEF68965C
:100AA000E6E00C941F3CA8E1B0E0E9E5F5E00C9429
:100AB000033C69837A838B839C832D833E834F839E
:100AC000588789E0E82EF12CEC0EFD1ECE01019630
:100AD000B7010E9402088E010F5E1F4FCE010596DE
:100AE000B8010E9402088985823040F089898230ED
:100AF00028F0C701B8010E947A0801C08FEF6896FC
:100B0000E6E00C941F3CA8E1B0E0E9E8F5E00C94C5
:100B1000033C69837A838B839C832D833E834F833D
:100B2000588789E0E82EF12CEC0EFD1ECE010196CF
:100B3000B7010E9402088E010F5E1F4FCE0105967D
:100B4000B8010E9402088985823040F0898982308C
:100B500028F0C701B8010E947A0801C081E06896B8
:100B6000E6E00C941F3CA8E0B0E0E9EBF5E00C9463
:100B7000003C9B01AC0183E08983DA01C90188272D
:100B8000B7FD83959927AA27BB27B82E21153105D4
:100B90004105510519F482E089833AC08823A9F000
:100BA000203080E0380780E0480780E8580729F4C3
:100BB00060E070E080E09FEC30C0EE24FF2487010D
:100BC000E21AF30A040B150B02C079018A018EE1C7
:100BD000C82ED12CDC82CB82ED82FE820F83188757
:100BE000C801B7010E94DE0601971816190684F4A1
:100BF000082E04C0EE0CFF1C001F111F0A94D2F730
:100C0000ED82FE820F831887C81AD90ADC82CB8254
:100C1000BA82CE0101960E942D072896E9E00C9435
:100C20001C3CACE0B0E0E7E1F6E00C94073C6983E3
:100C30007A838B839C83CE010196BE016B5F7F4FCD
:100C40000E9402088D81823061F1823050F184303F
:100C500021F48E81882351F12EC02F81388537FDF4
:100C600020C06E812F3131051CF06623F9F023C0BE
:100C70008EE190E0821B930B29853A854B855C853C
:100C800004C056954795379527958A95D2F76623E0
:100C9000B1F050954095309521953F4F4F4F5F4FA4
:100CA0000EC020E030E040E050E009C02FEF3FEF01
:100CB0004FEF5FE704C020E030E040E050E8B901CA
:100CC000CA012C96E2E00C94233CA8E0B0E0EBE6ED
:100CD000F6E00C94FF3B7B018C01611571058105E9
:100CE000910519F482E0898360C083E089838EE1F5
:100CF000C82ED12CDC82CB82ED82FE820F83188736
:100D0000C801B7010E94DE06FC013197F7FF3BC026
:100D1000222733272E1B3F0B57016801022E04C0E8
:100D2000D694C794B794A7940A94D2F740E050E0C1
:100D300060E070E081E090E0A0E0B0E004C0880FE7
:100D4000991FAA1FBB1F2A95D2F70197A109B109C4
:100D50008E219F21A023B1230097A105B10521F089
:100D600041E050E060E070E04A295B296C297D2970
:100D70004D835E836F8378878EE190E08E1B9F0B9F
:100D80009C838B8312C0309781F00E2E04C0EE0C32
:100D9000FF1C001F111F0A94D2F7ED82FE820F8301
:100DA0001887CE1ADF0ADC82CB821A82CE01019626
:100DB0000E942D072896EAE00C941B3CEF92FF92CC
:100DC0000F931F937B018C0180E0E81680E0F8060A
:100DD00081E0080780E0180788F48FEFE816F10437
:100DE0000105110531F028F088E090E0A0E0B0E0C6
:100DF00017C080E090E0A0E0B0E012C080E0E8160C
:100E000080E0F80680E0080781E0180728F088E114
:100E100090E0A0E0B0E004C080E190E0A0E0B0E0AD
:100E200020E230E040E050E0281B390B4A0B5B0B1E
:100E300004C016950795F794E7948A95D2F7F701C1
:100E4000E553FF4F8081281B310941095109C90130
:100E50001F910F91FF90EF900895DF92EF92FF9214
:100E60000F931F93FC01E480F58006811781D180E8
:100E70008081823048F480E090E0A0E1B0E0E82A90
:100E8000F92A0A2B1B2BA5C0843009F49FC082309D
:100E900021F4EE24FF24870105C0E114F1040105CB
:100EA000110519F4E0E0F0E096C0628173819FEFD4
:100EB000623879070CF05BC022E83FEF261B370B46
:100EC0002A3131052CF020E030E040E050E02AC02B
:100ED000B801A701022E04C07695679557954795EE
:100EE0000A94D2F781E090E0A0E0B0E004C0880F5F
:100EF000991FAA1FBB1F2A95D2F70197A109B10913
:100F00008E219F21A023B1230097A105B10521F0D7
:100F100081E090E0A0E0B0E09A01AB01282B392BF2
:100F20004A2B5B2BDA01C9018F779070A070B070EB
:100F300080349105A105B10539F427FF09C0205C73
:100F40003F4F4F4F5F4F04C0215C3F4F4F4F5F4FAC
:100F5000E0E0F0E02030A0E03A07A0E04A07A0E49B
:100F60005A0710F0E1E0F0E079018A0127C060380B
:100F7000710564F5FB01E158FF4FD801C7018F7778
:100F80009070A070B07080349105A105B10539F45E
:100F9000E7FE0DC080E490E0A0E0B0E004C08FE385
:100FA00090E0A0E0B0E0E80EF91E0A1F1B1F17FF3B
:100FB00005C016950795F794E794319687E0169546
:100FC0000795F794E7948A95D1F705C0EE24FF249E
:100FD0008701EFEFF0E06E2F679566276795902FFA
:100FE0009F77D794DD24D7948E2F8695492F462B53
:100FF000582F5D29B701CA011F910F91FF90EF9003
:10100000DF900895FC01DB01408151812281622F34
:101010006F7770E0221F2227221F9381892F880F6C
:10102000822B282F30E0991F9927991F11969C93A6
:10103000119721153105A9F5411551056105710576
:1010400011F482E037C082E89FEF13969C938E9351
:1010500012979A01AB0167E0220F331F441F551FFF
:101060006A95D1F783E08C930DC0220F331F441F84
:10107000551F12968D919C911397019713969C93EF
:101080008E931297203080E0380780E0480780E494
:10109000580758F314962D933D934D935C931797EF
:1010A00008952F3F310579F441155105610571050A
:1010B00019F484E08C93089564FF03C081E08C935D
:1010C00012C01C9210C02F57304013963C932E93A1
:1010D000129783E08C9387E0440F551F661F771F9C
:1010E0008A95D1F7706414964D935D936D937C93BC
:1010F000179708951F93DC01FB019C91923008F42F
:1011000047C08081823008F443C0943051F4119676
:101110001C91843099F58181682F70E0611B710901
:101120003FC0843021F0923031F48230B9F18181B6
:10113000882389F12DC011961C9111978230F1F00E
:1011400081811817D9F412962D913C9113978281C1
:1011500093818217930794F028173907BCF01496EF
:101160008D919D910D90BC91A02D2481358146815A
:101170005781281739074A075B0718F4112341F0F4
:101180000AC082179307A407B50740F4112319F08A
:1011900061E070E005C06FEF7FEF02C060E070E0DB
:1011A000CB011F910895DF93CF93CDB7DEB780E0D9
:1011B00090E0A0E0B0E080936E0290936F02A09365
:1011C0007002B093710281E08093F00110926C0282
:1011D00010926D021092780282E090E09093F201FA
:1011E0008093F101109273021092720210927902B0
:1011F000CF91DF910895CF92DF92EF92FF920F93FC
:101200001F93DF93CF9300D0CDB7DEB70E94AE30EF
:101210000E94C12D8FEF8093EF011BC08FEE91E0F4
:101220000E948C2F8091F1019091F2018070907258
:10123000009779F08091EF01833659F08091EF01AA
:10124000813739F08091EF01883719F08FEF809363
:10125000EF018091EF018F3F09F38091F1019091AF
:10126000F2019F7D9093F2018093F1018091EF0153
:10127000813251F480E690E00E94773780917902C4
:101280008B5F80937902A1C08091EF01833751F485
:1012900086E690E00E947737809179028C5F809398
:1012A000790293C08091EF01833451F48BE690E092
:1012B0000E947737809179028C5F8093790285C094
:1012C0008091EF01843751F480E790E00E947737F6
:1012D000809179028C5F8093790277C08091EF01D1
:1012E0008E3551F485E790E00E947737809179023E
:1012F0008D5F8093790269C08091EF01893751F445
:1013000089E790E00E947737809179028B5F809324
:1013100079025BC08091EF018B3551F48FE790E04B
:101320000E947737809179028B5F809379024DC05C
:101330008091EF01863751F485E890E00E9477377D
:10134000809179028B5F809379023FC08091EF0199
:10135000873751F48BE890E00E94773780917902CB
:101360008B5F8093790231C08091EF01853751F412
:1013700081E990E00E947737809179028B5F8093BA
:10138000790223C08091EF01803751F487E990E022
:101390000E947737809179028B5F8093790215C024
:1013A0008091EF01803320F08091EF018A3320F0AB
:1013B0008091EF018E3249F48091EF010E9438371D
:1013C000809179028F5F809379028091EF01803361
:1013D00020F08091EF018A3368F08091EF018E3226
:1013E00049F08091EF01853629F08091EF01863236
:1013F00009F0F7C1809179028131F8F010927C02F6
:101400000DC088E10E945037809178028F5F8093F1
:10141000780280917C028F5F80937C0280917C02B5
:10142000282F30E080917902882F90E0409728178C
:1014300039073CF380E1809379028091EF018E328D
:1014400051F48091F1019091F20192609093F20138
:101450008093F101DFCE8091F1019091F2018860DB
:101460009093F2018093F1018091F1019091F2014A
:101470008D7F9093F2018093F1018091F101909121
:10148000F201977F9093F2018093F1018091EF0137
:101490008536B1F48BED9FE0A9E4B0E480936E0251
:1014A00090936F02A0937002B093710280917902C1
:1014B0008E5F809379028DE990E00E947737AACE03
:1014C0008091EF018632D1F480917402909175027F
:1014D000A0917602B091770280936E0290936F0292
:1014E000A0937002B093710280EA90E00E94773777
:1014F000809179028D5F809379028CCE8091F10189
:101500009091F20181709070882309F4D9C0809184
:10151000F1019091F20180709270009709F47AC005
:101520008091EF01882F90E0C097AA2797FDA095A2
:10153000BA2FBC01CD010E94B3057B018C018091C3
:10154000F001882F90E0AA2797FDA095BA2FBC0143
:10155000CD010E94B305DC01CB01BC01CD0120E02F
:1015600030E040E251EC0E941D03DC01CB019C0104
:10157000AD01C801B7010E941704DC01CB01209125
:101580006E0230916F024091700250917102BC0165
:10159000CD010E94F002DC01CB0180936E0290939A
:1015A0006F02A0937002B09371028091F001882FB6
:1015B00090E09C01220F331FC901880F991F880FEB
:1015C000991F820F931F8093F00180916E0290917A
:1015D0006F02A0917002B0917102BC01CD0120E0B8
:1015E00030E040E050E00E94230518160CF012CEC7
:1015F00080916E0290916F02A0917002B091710281
:10160000B05880936E0290936F02A0937002B093D3
:10161000710200CE80916E0290916F02A0917002D3
:10162000B0917102BC01CD0120E030E040E251E414
:101630000E941D03DC01CB017C018D018091EF0133
:10164000882F90E0C097AA2797FDA095BA2FBC01DC
:10165000CD010E94B3059B01AC01C801B7010E94F6
:10166000BF02DC01CB0180936E0290936F02A093C6
:101670007002B093710280916E0290916F02A091FE
:101680007002B0917102BC01CD0120E030E040E079
:1016900050E00E94230518160CF0BCCD80916E021C
:1016A00090916F02A0917002B0917102B058809336
:1016B0006E0290936F02A0937002B0937102AACD54
:1016C0008091F1019091F20180709270009709F47D
:1016D00056C08091EF01882F90E0C097AA2797FD10
:1016E000A095BA2FBC01CD010E94B3057B018C01EE
:1016F0008091F001882F90E0AA2797FDA095BA2F3E
:10170000BC01CD010E94B305DC01CB01BC01CD01C0
:1017100020E030E040E251E40E941D03DC01CB01F7
:101720009C01AD01C801B7010E941704DC01CB0187
:1017300020916E0230916F024091700250917102BF
:10174000BC01CD010E94F002DC01CB0180936E024E
:1017500090936F02A0937002B09371028091F00198
:10176000882F90E09C01220F331FC901880F991F19
:10177000880F991F820F931F8093F0014BCD8091AA
:101780006E0290916F02A0917002B0917102BC0143
:10179000CD0120E030E040E251E40E941D03DC0175
:1017A000CB017C018D018091EF01882F90E0C097E3
:1017B000AA2797FDA095BA2FBC01CD010E94B305C1
:1017C0009B01AC01C801B7010E94F002DC01CB0112
:1017D00080936E0290936F02A0937002B093710297
:1017E00019CD8091EF018D3309F02CC78091F10163
:1017F0009091F20188709070009709F419C7809158
:10180000F1019091F20180719070009709F010C77A
:101810008091F1019091F20184709070009709F02D
:1018200007C78091F1019091F20180749070009748
:1018300009F446C080916C02C82EDD2480916E02AE
:1018400090916F02A0917002B0917102BC01CD0124
:1018500025E33AEF4EE85CE30E941D03DC01CB0177
:101860007C018D012091F3013091F4014091F5014B
:101870005091F60160E070E080E89FE30E94170459
:10188000DC01CB019C01AD01C801B7010E941D0321
:10189000DC01CB01BC01CD010E943C239B01AC01CA
:1018A000C601880F991F880F991FFC01EC5BFD4F43
:1018B000208331834283538389E20E9438379DC35A
:1018C0008091F1019091F20180789070009709F475
:1018D00046C080916C02C82EDD2480916E029091EA
:1018E0006F02A0917002B0917102BC01CD0125E39D
:1018F0003AEF4EE85CE30E941D03DC01CB017C0162
:101900008D012091F3013091F4014091F501509146
:10191000F60160E070E080E89FE30E941704DC01BC
:10192000CB019C01AD01C801B7010E941D03DC0180
:10193000CB01BC01CD010E94A2219B01AC01C601DB
:10194000880F991F880F991FFC01EC5BFD4F2083C6
:1019500031834283538389E20E9438374EC380919A
:10196000F1019091F20180729070009709F43DC0EE
:1019700080916E0290916F02A0917002B0917102FD
:10198000BC01CD0120E030E040E050E00E94830542
:1019900088234CF48091F1019091F201846090933E
:1019A000F2018093F10180916C02082F10E0809188
:1019B0006E0290916F02A0917002B0917102BC0111
:1019C000CD010E947D249B01AC01C801880F991FA5
:1019D000880F991FFC01EC5BFD4F2083318342830C
:1019E000538389E20E94383708C38091F1019091B6
:1019F000F20180709170009709F412C180916E021B
:101A000090916F02A0917002B0917102BC01CD0162
:101A100020E030E044EB52E40E94C3048823B1F19B
:101A200080916E0290916F02A0917002B09171024C
:101A3000BC01CD0120E030E044EB52EC0E94C30435
:101A4000882321F180916E0290916F02A091700223
:101A5000B0917102BC01CD0120E030E047E853E4D1
:101A60000E94C304882391F080916E0290916F02CE
:101A7000A0917002B0917102BC01CD0120E030E074
:101A800047E853EC0E94C3048823F1F48091F301EA
:101A90009091F401A091F501B091F601BC01CD0146
:101AA00020E030E040E85FE30E94C304882361F453
:101AB0008091F1019091F20184609093F201809302
:101AC000F10189E20E94383780916E0290916F0295
:101AD000A0917002B0917102BC01CD012BED3FE0ED
:101AE00049EC5FE30E94C3048823B1F180916E0248
:101AF00090916F02A0917002B0917102BC01CD0172
:101B00002BED3FE049EC5FEB0E94C304882321F1F9
:101B100080916E0290916F02A0917002B09171025B
:101B2000BC01CD0124EE3BEC46E950E40E94C30425
:101B3000882391F080916E0290916F02A0917002C3
:101B4000B0917102BC01CD0124EE3BEC46E950ECB2
:101B50000E94C3048823F1F48091F3019091F40171
:101B6000A091F501B091F601BC01CD0125E33AEF5A
:101B70004EE85CE30E94C304882361F48091F10184
:101B80009091F20184609093F2018093F10189E2D7
:101B90000E94383780916C02C82EDD2480916E023D
:101BA00090916F02A0917002B0917102BC01CD01C1
:101BB00025E33AEF4EE85CE30E941D03DC01CB0114
:101BC0007C018D012091F3013091F4014091F501E8
:101BD0005091F60160E070E080E89FE30E941704F6
:101BE000DC01CB019C01AD01C801B7010E941D03BE
:101BF000DC01CB01BC01CD010E9462239B01AC0141
:101C0000C601880F991F880F991FFC01EC5BFD4FDF
:101C1000208331834283538389E20E943837EDC1A8
:101C20008091F1019091F20180709470009711F110
:101C300080916C02082F10E080916E0290916F02EB
:101C4000A0917002B0917102BC01CD010E94972356
:101C50009B01AC01C801880F991F880F991FFC01D7
:101C6000EC5BFD4F208331834283538389E20E94E2
:101C70003837C3C180917202909173028072907064
:101C80000097E1F180916C02082F10E080916E02C4
:101C900090916F02A0917002B0917102BC01CD01D0
:101CA0000E94F424DC01CB01BC01CD0120EE3EE218
:101CB00045E652E40E941D03DC01CB012091F301B3
:101CC0003091F4014091F5015091F601BC01CD0134
:101CD0000E941D03DC01CB019C01AD01C801880FEE
:101CE000991F880F991FFC01EC5BFD4F2083318306
:101CF0004283538389E20E9438377FC18091720208
:101D00009091730288709070009709F46CC0809174
:101D10006E0290916F02A0917002B0917102BC01AD
:101D2000CD0120E030E040E85FE30E942305181673
:101D300094F080916E0290916F02A0917002B09128
:101D40007102BC01CD0120E030E040E85FEB0E9471
:101D50008305882364F48091F1019091F2018460FD
:101D60009093F2018093F10189E20E9438378091CB
:101D70006C02082F10E080916E0290916F02A0918A
:101D80007002B0917102BC01CD010E940728DC01F4
:101D9000CB01BC01CD0120EE3EE245E652E40E94BB
:101DA0001D03DC01CB012091F3013091F40140913E
:101DB000F5015091F601BC01CD010E941D03DC012B
:101DC000CB019C01AD01C801880F991F880F991F95
:101DD000FC01EC5BFD4F208331834283538389E216
:101DE0000E9438370AC1809172029091730280710B
:101DF0009070009709F46CC080916E0290916F0210
:101E0000A0917002B0917102BC01CD0120E030E0E0
:101E100040E85FE30E942305181694F080916E025B
:101E200090916F02A0917002B0917102BC01CD013E
:101E300020E030E040E85FEB0E948305882364F4F3
:101E40008091F1019091F20184609093F20180936E
:101E5000F10189E20E94383780916C02082F10E06E
:101E600080916E0290916F02A0917002B091710208
:101E7000BC01CD010E944428DC01CB01BC01CD0195
:101E800020EE3EE245E652E40E941D03DC01CB0158
:101E90002091F3013091F4014091F5015091F60148
:101EA000BC01CD010E941D03DC01CB019C01AD01F1
:101EB000C801880F991F880F991FFC01EC5BFD4F2B
:101EC000208331834283538389E20E94383795C04F
:101ED000809172029091730281709070882311F149
:101EE00080916C02082F10E080916E0290916F0239
:101EF000A0917002B0917102BC01CD010E94692ACB
:101F00009B01AC01C801880F991F880F991FFC0124
:101F1000EC5BFD4F208331834283538389E20E942F
:101F200038376BC08091720290917302827090700A
:101F3000009711F180916C02082F10E080916E02E1
:101F400090916F02A0917002B0917102BC01CD011D
:101F50000E94A92A9B01AC01C801880F991F880F14
:101F6000991FFC01EC5BFD4F208331834283538337
:101F700089E20E94383741C08091720290917302C9
:101F800084709070009711F180916C02082F10E01E
:101F900080916E0290916F02A0917002B0917102D7
:101FA000BC01CD010E94E92A9B01AC01C801880F48
:101FB000991F880F991FFC01EC5BFD4F2083318333
:101FC0004283538389E20E94383717C080916C02A4
:101FD000882F90E020916E0230916F024091700244
:101FE00050917102880F991F880F991FFC01EC5BBB
:101FF000FD4F20833183428353838091F10190917F
:10200000F2018F719A7F9093F2018093F101109207
:102010007302109272028091F1019091F201977F08
:102020009093F2018093F1018091F1019091F2017E
:1020300084709070009791F00E94683784EA90E075
:102040000E9477370E94D3088091F1019091F201AC
:1020500090629093F2018093F101DCC88091EF01CE
:102060000E94383782E060E00E94B03710927E0212
:10207000BCC080917E02882F90E0FC01EC59FD4F9E
:1020800080818B3309F0ACC080917E02C82EDD24A4
:1020900080917E02882F90E0880F991F880F991FEA
:1020A000FC01EC5BFD4FE080F180028113818091A7
:1020B0007E02882F90E00196880F991F880F991F44
:1020C000FC01EC5BFD4F80819181A281B381BC0159
:1020D000CD010E941106DC01CB01282FC801B701F8
:1020E000422F0E9409219B01AC01C601880F991F54
:1020F000880F991FFC01EC5BFD4F208331834283E5
:10210000538380917E02882F90E00196880F991F5B
:10211000880F991FFC01EC5BFD4F80E090E0A0E090
:10212000B0E080839183A283B38380917E02882F65
:1021300090E0FC01EC59FD4F108280917E028F5F90
:1021400080937B0225C080917B02682F70E0809194
:102150007B02882F90E00196880F991F880F991FA6
:10216000FC01EC5BFD4F2081318142815381CB0129
:10217000880F991F880F991FFC01EC5BFD4F20838E
:1021800031834283538380917B028F5F80937B02F4
:1021900080917B028730B8F280917E0280937B022F
:1021A00016C080917B02282F30E080917B02882F1F
:1021B00090E00196FC01EC59FD4F8081F901EC594A
:1021C000FD4F808380917B028F5F80937B028091A3
:1021D0007B02873030F380917E02815080937E02B3
:1021E00080917E028F5F80937E0280917E02883094
:1021F00008F43FCF10927E0202C180917E02882FA8
:1022000090E0FC01EC59FD4F80818A3259F08091B9
:102210007E02882F90E0FC01EC59FD4F80818F32C7
:1022200009F0E8C080917E02882F90E0FC01EC5913
:10223000FD4F80818A32C1F580917E02C82EDD2457
:1022400080917E02882F90E0880F991F880F991F38
:10225000FC01EC5BFD4FE080F180028113818091F5
:102260007E02882F90E00196880F991F880F991F92
:10227000FC01EC5BFD4F2081318142815381C8011B
:10228000B7010E941D03DC01CB019C01AD01C60119
:10229000880F991F880F991FFC01EC5BFD4F20836D
:1022A00031834283538337C080917E02C82EDD2460
:1022B00080917E02882F90E0880F991F880F991FC8
:1022C000FC01EC5BFD4FE080F18002811381809185
:1022D0007E02882F90E00196880F991F880F991F22
:1022E000FC01EC5BFD4F2081318142815381C801AB
:1022F000B7010E941704DC01CB019C01AD01C601AE
:10230000880F991F880F991FFC01EC5BFD4F2083FC
:1023100031834283538380917E02882F90E001961F
:10232000880F991F880F991FFC01EC5BFD4F80E01F
:1023300090E0A0E0B0E080839183A283B38380919A
:102340007E02882F90E0FC01EC59FD4F10828091B5
:102350007E028F5F80937B0225C080917B02682F75
:1023600070E080917B02882F90E00196880F991F82
:10237000880F991FFC01EC5BFD4F20813181428168
:102380005381CB01880F991F880F991FFC01EC5BCB
:10239000FD4F208331834283538380917B028F5F83
:1023A00080937B0280917B028730B8F280917E021D
:1023B00080937B0216C080917B02282F30E08091B1
:1023C0007B02882F90E00196FC01EC59FD4F808143
:1023D000F901EC59FD4F808380917B028F5F8093E0
:1023E0007B0280917B02873030F380917E028150A6
:1023F00080937E0280917E028F5F80937E02809127
:102400007E02883008F4F9CE99C0809164028B3244
:10241000F9F48091440290914502A0914602B09156
:102420004702209148023091490240914A0250915E
:102430004B02BC01CD010E94F002DC01CB01809374
:10244000440290934502A0934602B09347021EC0F7
:102450008091440290914502A0914602B0914702BA
:10246000209148023091490240914A0250914B021A
:10247000BC01CD010E94BF02DC01CB01809344026C
:1024800090934502A0934602B093470280E090E00B
:10249000A0E0B0E08093480290934902A0934A02E2
:1024A000B0934B021092640281E080937B0225C0BE
:1024B00080917B02682F70E080917B02882F90E0F2
:1024C0000196880F991F880F991FFC01EC5BFD4F47
:1024D0002081318142815381CB01880F991F880F60
:1024E000991FFC01EC5BFD4F2083318342835383B2
:1024F00080917B028F5F80937B0280917B0286308C
:10250000B8F210927B0216C080917B02282F30E037
:1025100080917B02882F90E00196FC01EC59FD4FE1
:102520008081F901EC59FD4F808380917B028F5FA0
:1025300080937B0280917B02853030F3809164022E
:10254000882309F062CF8091440290914502A091C6
:102550004602B0914702BC01CD010E94CE37809166
:10256000440290914502A0914602B09147028093A7
:10257000740290937502A0937602B093770280E084
:1025800090E0A0E0B0E08093440290934502A093D5
:102590004602B093470210926D0210926C02809135
:1025A0007802882389F010927C0208C08CE10E9496
:1025B000503780917C028F5F80937C0290917C02E7
:1025C00080917802981790F310927C0220C080913D
:1025D0007C02882F90E0FC01EC59FD4F1082809125
:1025E0007C02882F90E0880F991F880F991FFC01AB
:1025F000EC5BFD4F80E090E0A0E0B0E08083918351
:10260000A283B38380917C028F5F80937C02809150
:102610007C028830E0F20E94D3088091F101909111
:10262000F20190629093F2018093F1010C940A09F7
:102630000E94683784EA90E00E9477370E94D308AE
:102640000C940A098091EF01833631F40E946837B7
:102650000E94D3080C940A098091EF01893669F031
:102660008091EF018A3749F08091EF01813629F09E
:102670008091EF018F3609F075C7809172029091B9
:1026800073029B7F909373028093720280E090E0CC
:10269000A0E0B0E080936E0290936F02A09370026E
:1026A000B093710281E06CE00E94B0378091EF013D
:1026B000893621F580917202909173029160909316
:1026C00073028093720210927D020FC080917D028E
:1026D000992787FD9095FC01E353FE4F80E28083AC
:1026E00080917D028F5F80937D0280917D02803199
:1026F0006CF383EB90E00E94773735C08091EF0157
:102700008A3771F480917202909173029260909373
:1027100073028093720287EB90E00E94773723C0A8
:102720008091EF01813671F4809172029091730271
:10273000806890937302809372028BEB90E00E940A
:10274000773711C08091EF018F3669F48091720262
:1027500090917302806490937302809372028FEB66
:1027600090E00E94773782E060E00E94B0373BC281
:102770008FEF8093EF0104C08FEE91E00E948C2FC9
:102780008091EF018F3FC1F38091EF01803320F002
:102790008091EF018A3328F08091EF018E3209F0A9
:1027A000A6C08091EF010E9438378091720290910B
:1027B000730280709470009709F015C28091EF0148
:1027C0008E3251F4809172029091730294609093D2
:1027D00073028093720207C2809172029091730219
:1027E00080789070009791F08091EF01883370F0BD
:1027F0008091EF018A3350F48091720290917302BC
:1028000094609093730280937202EDC18091720282
:102810009091730280709270009791F08091EF0117
:10282000803371F08091EF01813351F08091720219
:102830009091730294609093730280937202D3C15B
:1028400080916E0290916F02A0917002B09171021E
:10285000BC01CD0120E030E040E251E40E941D03C4
:10286000DC01CB017C018D018091EF01882F90E08C
:10287000C097AA2797FDA095BA2FBC01CD010E9451
:10288000B3059B01AC01C801B7010E94F002DC0155
:10289000CB0180936E0290936F02A0937002B0936D
:1028A00071028FE080937D0219C080917D02282FF4
:1028B000332727FD309580917D02992787FD9095DC
:1028C0000197FC01E353FE4F8081F901E353FE4F72
:1028D000808380917D02815080937D0280917D0272
:1028E00018161CF38091EF018093CD017CC180917B
:1028F000EF018837A9F08091EF01813789F080914D
:10290000EF01893669F08091EF018F3649F08091AF
:10291000EF018A3729F08091EF01813609F096C0E6
:102920008091EF01883721F481E40E9438372FC06D
:102930008091EF01883721F481E40E94383727C065
:102940008091EF01813721F482E40E9438371FC063
:102950008091EF01893621F483E40E94383717C053
:102960008091EF018F3621F484E40E9438370FC044
:102970008091EF018A3721F485E40E94383707C03F
:102980008091EF01813619F486E40E9438378091F6
:1029900072029091730280749070009751F480914C
:1029A000720290917302946090937302809372020A
:1029B0001AC18FE080937D0219C080917D02282F7B
:1029C000332727FD309580917D02992787FD9095CB
:1029D0000197FC01E353FE4F8081F901E353FE4F61
:1029E000808380917D02815080937D0280917D0261
:1029F00018161CF38091EF01883719F481E4809355
:102A0000CD018091EF01813719F482E48093CD01EB
:102A10008091EF01893619F483E48093CD01809190
:102A2000EF018F3619F484E48093CD018091EF019A
:102A30008A3719F485E48093CD018091EF018136C6
:102A400009F0D1C086E48093CD01CDC08091EF0123
:102A50008D3309F4A3C08091EF01833609F49EC041
:102A600080917202909173029460909373028093AC
:102A700072028091EF018B32A9F08091EF018D32CB
:102A800089F08091EF018A3269F08091EF018F32F5
:102A900049F0809172029091730298609093730252
:102AA000809372028091EF01813229F480E690E0F8
:102AB0000E94773798C08091EF01833729F486E62A
:102AC00090E00E9477378FC08091EF01833429F422
:102AD0008BE690E00E94773786C08091EF018437C3
:102AE00029F480E790E00E9477377DC08091EF0164
:102AF0008E3529F485E790E00E94773774C0809185
:102B0000EF01893729F489E790E00E9477376BC09D
:102B10008091EF018B3529F48FE790E00E947737A1
:102B200062C08091EF01863729F485E890E00E9429
:102B3000773759C08091EF01873729F48BE890E00F
:102B40000E94773750C08091EF01853729F481E9E1
:102B500090E00E94773747C08091EF01803729F4D9
:102B600087E990E00E9477373EC080917202909191
:102B7000730280709870009719F089E20E943837CC
:102B80008091EF010E943837809172029091730218
:102B9000977F909373028093720225C08091EF011A
:102BA0008D3361F4809172029091730280709870FD
:102BB0000097F1F089E20E9438371AC08091EF0146
:102BC000833689F40E9468370E94D30886E00E9409
:102BD000503780917202909173029B7F90937302A1
:102BE0008093720205C08091EF018D3309F0C0CD52
:102BF000809172029091730280709470009771F0CE
:102C00008091EF01833651F00E94683784EA90E0AA
:102C10000E9477370E94D3080C940A098091EF0133
:102C2000833611F40C940A0982E06FE00E94B037F9
:102C300084E00E9450378DEC91E00E9477378FEF4F
:102C40008093EF0104C08FEE91E00E948C2F809161
:102C5000EF01893681F08091EF018A3761F0809130
:102C6000EF01813641F08091EF018F3621F08091A4
:102C7000EF01833641F78091EF01833609F04DC0B3
:102C80000E94683780E090E0A0E0B0E080936E02A0
:102C900090936F02A0937002B093710282E090E073
:102CA0009093F2018093F10110927D020FC0809108
:102CB0007D02992787FD9095FC01E353FE4F80E349
:102CC000808380917D028F5F80937D0280917D0261
:102CD00080316CF310927D020FC080917D029927A4
:102CE00087FD9095FC01E252FE4F80E38083809146
:102CF0007D028F5F80937D0280917D0280316CF335
:102D0000109273021092720210926D0210926C0275
:102D100081E08093F0010C940A09809172029091F5
:102D2000730280709170009709F422C110927D02A5
:102D30000FC080917D02992787FD9095FC01E35398
:102D4000FE4F80E3808380917D028F5F80937D02C0
:102D500080917D0280316CF38091EF01893609F01A
:102D60006AC010927C0280916E0290916F02A091D5
:102D70007002B0917102BC01CD010E944701DC01DB
:102D8000CB019093CC018093CB018091CB019091AA
:102D9000CC012AE030E0B9010E94A63BCB01909320
:102DA000CC018093CB0180917C028F5F80937C0269
:102DB0008091CB019091CC01009739F786E00E9479
:102DC000503782E060E00E94B03710927D0208C068
:102DD00080E20E94383780917D028F5F80937D0270
:102DE00080917D02482F552747FD509580917C02A8
:102DF000282F30E080E190E0821B930B48175907A1
:102E00003CF390917C0280E1282F291B922F82E0D5
:102E1000692F0E94B03780916E0290916F02A0914D
:102E20007002B0917102BC01CD010E94CE3784E0E6
:102E30000E94503704CF8091EF018F3681F5809149
:102E40006E0290916F02A0917002B0917102BC016C
:102E5000CD010E944701DC01CB012DEC31E0B9012D
:102E60000E94692882E06FE00E94B0378FE0809373
:102E70007D0210C080917D02992787FD9095FC010D
:102E8000E353FE4F80810E94383780917D0281504C
:102E900080937D0280917D02882364F7D0CE80915B
:102EA000EF018A3781F580916E0290916F02A091B7
:102EB0007002B0917102BC01CD010E944701DC019A
:102EC000CB012DEC31E0B9010E94FC2882E06FE0DB
:102ED0000E94B0378FE080937D0210C080917D0208
:102EE000992787FD9095FC01E353FE4F80810E9456
:102EF000383780917D02815080937D0280917D02E0
:102F0000882364F79CCE8091EF01813609F097CE3B
:102F100080916E0290916F02A0917002B091710247
:102F2000BC01CD010E944701DC01CB012DEC31E059
:102F3000B9010E94C12882E06FE00E94B0378FE0A3
:102F400080937D0210C080917D02992787FD909526
:102F5000FC01E353FE4F80810E94383780917D024F
:102F6000815080937D0280917D02882364F767CE33
:102F7000809172029091730280789070009709F4AA
:102F8000F5C010927D020FC080917D02992787FDC8
:102F90009095FC01E252FE4F80E3808380917D0298
:102FA0008F5F80937D0280917D0280316CF38091F0
:102FB000EF01893609F065C010927C028DEC91E03A
:102FC0000E9490299093CC018093CB018091CB01FA
:102FD0009091CC012AE030E0B9010E94A63BCB01E0
:102FE0009093CC018093CB0180917C028F5F809382
:102FF0007C028091CB019091CC01009739F786E05B
:103000000E94503782E060E00E94B03710927D024B
:1030100008C080E20E94383780917D028F5F8093E4
:103020007D0280917D02482F552747FD5095809164
:103030007C02282F30E080E190E0821B930B481740
:1030400059073CF390917C0280E1382F391B932F74
:1030500082E0692F0E94B0378DEC91E00E949029A8
:10306000CC01A0E0B0E0BC01CD010E946506DC010E
:10307000CB01BC01CD010E94CE3784E00E945037C5
:10308000DECD8091EF018F3671F58DEC91E00E94DD
:1030900090299093CC018093CB018091CB019091AA
:1030A000CC012EED31E0B9010E94692882E06FE089
:1030B0000E94B0378FE080937D0210C080917D0226
:1030C000992787FD9095FC01E252FE4F80810E9476
:1030D000383780917D02815080937D0280917D02FE
:1030E000882364F7ACCD8091EF018A3771F58DECC0
:1030F00091E00E9490299093CC018093CB01809124
:10310000CB019091CC012EED31E0B9010E94FC2859
:1031100082E06FE00E94B0378FE080937D0210C0A4
:1031200080917D02992787FD9095FC01E252FE4F28
:1031300080810E94383780917D02815080937D028A
:1031400080917D02882364F77ACD8091EF018136EA
:1031500009F075CD82E06FE00E94B03784E00E94F4
:1031600050378DEC91E00E94773769CD80917202E3
:103170009091730280709270009709F4F5C01092DC
:103180007D020FC080917D02992787FD9095FC01FB
:10319000E252FE4F80E3808380917D028F5F8093B7
:1031A0007D0280917D0280316CF38091EF01893640
:1031B00009F065C010927C028DEC91E00E942D2AEE
:1031C0009093CC018093CB018091CB019091CC0165
:1031D0002AE030E0B9010E94A63BCB019093CC01DC
:1031E0008093CB0180917C028F5F80937C028091E1
:1031F000CB019091CC01009739F786E00E945037BF
:1032000082E060E00E94B03710927D0208C080E248
:103210000E94383780917D028F5F80937D0280917C
:103220007D02482F552747FD509580917C02282F1D
:1032300030E080E190E0821B930B481759073CF384
:1032400090917C0280E1282F291B922F82E0692F28
:103250000E94B0378DEC91E00E942D2ACC01A0E0B5
:10326000B0E0BC01CD010E946506DC01CB01BC01D0
:10327000CD010E94CE3784E00E945037E0CC80918F
:10328000EF018F3671F58DEC91E00E942D2A90931D
:10329000CC018093CB018091CB019091CC012EED9C
:1032A00031E0B9010E94692882E06FE00E94B037E6
:1032B0008FE080937D0210C080917D02992787FD69
:1032C0009095FC01E252FE4F80810E943837809138
:1032D0007D02815080937D0280917D02882364F776
:1032E000AECC8091EF018A3761F482E06FE00E94FA
:1032F000B03784E00E9450378DEC91E00E94773720
:103300009ECC8091EF01813609F099CC8DEC91E053
:103310000E942D2A9093CC018093CB018091CB0108
:103320009091CC012EED31E0B9010E94C12882E0DC
:103330006FE00E94B0378FE080937D0210C08091D3
:103340007D02992787FD9095FC01E252FE4F808116
:103350000E94383780917D02815080937D02809158
:103360007D02882364F76BCC809172029091730286
:1033700080749070009709F462CC10927D020FC0A7
:1033800080917D02992787FD9095FC01E252FE4FC6
:1033900080E3808380917D028F5F80937D028091A6
:1033A0007D0280316CF38091EF01893609F065C0B0
:1033B00010927C028DEC91E00E9433299093CC0115
:1033C0008093CB018091CB019091CC012AE030E039
:1033D000B9010E94A63BCB019093CC018093CB0115
:1033E00080917C028F5F80937C028091CB019091D1
:1033F000CC01009739F786E00E94503782E060E008
:103400000E94B03710927D0208C080E20E943837D7
:1034100080917D028F5F80937D0280917D02482F95
:10342000552747FD509580917C02282F30E080E1A0
:1034300090E0821B930B481759073CF390917C0254
:1034400080E1382F391B932F82E0692F0E94B0371B
:103450008DEC91E00E943329CC01A0E0B0E0BC01EA
:10346000CD010E946506DC01CB01BC01CD010E94AB
:10347000CE3784E00E945037E2CB8091EF018F3647
:1034800061F482E06FE00E94B03784E00E94503720
:103490008DEC91E00E947737D2CB8091EF018A3793
:1034A00071F58DEC91E00E9433299093CC018093CB
:1034B000CB018091CB019091CC012EED31E0B9018F
:1034C0000E94FC2882E06FE00E94B0378FE080937A
:1034D0007D0210C080917D02992787FD9095FC01A7
:1034E000E252FE4F80810E94383780917D028150E8
:1034F00080937D0280917D02882364F7A0CB809128
:10350000EF01813609F09BCB8DEC91E00E943329CD
:103510009093CC018093CB018091CB019091CC0111
:103520002EED31E0B9010E94C12882E06FE00E94D7
:10353000B0378FE080937D0210C080917D02992783
:1035400087FD9095FC01E252FE4F80810E94383742
:1035500080917D02815080937D0280917D0288233D
:1035600064F76DCB8091EF01813751F488E10E94BF
:103570005037809178028F5F809378020C940A090B
:103580008091EF01883751F48CE10E94503780918F
:1035900078028150809378020C940A098091EF019F
:1035A000823671F485E39AEFAEE8BCE38093F301D1
:1035B0009093F401A093F501B093F6010C940A09DD
:1035C0008091EF01823771F480E090E0A0E8BFE3E2
:1035D0008093F3019093F401A093F501B093F60169
:1035E0000C940A09809179028131F8F010927C02E2
:1035F0000DC088E10E945037809178028F5F8093E0
:10360000780280917C028F5F80937C0280917C02A3
:10361000282F30E080917902882F90E0409728177A
:1036200039073CF380E180937902809179028F5FC2
:10363000809379028091F1019091F2019D7F9093A6
:10364000F2018093F1018091F1019091F2018E7F5E
:103650009093F2018093F10181E08093F0018091D9
:10366000EF01843749F18091EF01833429F1809192
:10367000EF01833709F18091EF018132E9F0809108
:10368000EF018E35C9F08091EF018637A9F0809166
:10369000EF01893789F08091EF018B3569F08091D6
:1036A000EF01873749F08091EF01853729F080914C
:1036B000EF01803709F0CAC08091EF01282F30E078
:1036C0003A83298389819A818437910509F446C018
:1036D00029813A81253731054CF589819A818E35CA
:1036E000910509F463C029813A812F35310594F49D
:1036F00089819A8183349105D9F129813A812B35C9
:10370000310509F471C089819A818132910509F4EA
:1037100043C091C029813A812037310509F482C024
:1037200089819A818337910569F185C029813A8120
:103730002637310509F444C089819A81863791057D
:103740000CF466C029813A812737310509F456C047
:1037500089819A8189379105E9F16DC08091F101E4
:103760009091F20191609093F2018093F10163C016
:103770008091F1019091F20180689093F201809321
:10378000F10159C08091F1019091F2018064909310
:10379000F2018093F1014FC08091F1019091F2010B
:1037A00080629093F2018093F10145C08091F10114
:1037B0009091F20194609093F2018093F1013BC0EB
:1037C0008091720290917302806290937302809351
:1037D000720231C08091720290917302886090935E
:1037E00073028093720227C08091720290917302DB
:1037F000806190937302809372021DC08091720267
:10380000909173028160909373028093720213C04F
:103810008091720290917302826090937302809300
:10382000720209C080917202909173028460909339
:103830007302809372028091F1019091F20198607D
:103840009093F2018093F1010C940A098091F101A7
:103850009091F201827090700097C9F08091EF0111
:103860008B32A9F08091EF018D3289F08091EF01C8
:103870008B3321F08091EF010E9438378091F10164
:103880009091F20180619093F2018093F101809117
:10389000F1019091F2018D7F9093F2018093F101FB
:1038A0008091F1019091F201807098700097A9F0D9
:1038B0008091EF018A3241F08091EF018F3221F047
:1038C0008091EF018B3349F48091F1019091F201E5
:1038D00084609093F2018093F1018091F1019091C5
:1038E000F20188709070009771F58091EF018D3230
:1038F00071F48091F1019091F20181609093F20155
:103900008093F1018DE20E9438370C940A0980916E
:10391000EF018A3221F08091EF018F3259F48091CA
:10392000F1019091F20184609093F2018093F10192
:103930000C940A098091EF018B3229F48BE20E94EA
:1039400038370C940A098091F1019091F20180744A
:103950009070009709F446C080916C02C82EDD2457
:1039600080916E0290916F02A0917002B0917102ED
:10397000BC01CD0125E33AEF4EE85CE30E941D0354
:10398000DC01CB017C018D012091F3013091F40128
:103990004091F5015091F60160E070E080E89FE30E
:1039A0000E941704DC01CB019C01AD01C801B701E5
:1039B0000E941D03DC01CB01BC01CD010E943C2310
:1039C0009B01AC01C601880F991F880F991FFC014C
:1039D000EC5BFD4F208331834283538389E20E9455
:1039E0003837FBC28091F1019091F201807890709C
:1039F000009709F446C080916C02C82EDD248091A6
:103A00006E0290916F02A0917002B0917102BC01A0
:103A1000CD0125E33AEF4EE85CE30E941D03DC0193
:103A2000CB017C018D012091F3013091F401409193
:103A3000F5015091F60160E070E080E89FE30E949C
:103A40001704DC01CB019C01AD01C801B7010E9444
:103A50001D03DC01CB01BC01CD010E94A2219B0111
:103A6000AC01C601880F991F880F991FFC01EC5B00
:103A7000FD4F208331834283538389E20E9438378C
:103A8000ACC28091F1019091F20180729070009728
:103A900009F440C080916E0290916F02A091700273
:103AA000B0917102BC01CD0120E030E040E050E077
:103AB0000E948305882364F48091F1019091F201C2
:103AC00084609093F2018093F10189E20E9438377B
:103AD00080916C02082F10E080916E0290916F022D
:103AE000A0917002B0917102BC01CD010E947D24B1
:103AF0009B01AC01C801880F991F880F991FFC0119
:103B0000EC5BFD4F208331834283538389E20E9423
:103B1000383763C28091F1019091F2018070917009
:103B2000009709F473C080916E0290916F02A0918A
:103B30007002B0917102BC01CD0120E030E044EB95
:103B400052E40E94C304882391F080916E02909108
:103B50006F02A0917002B0917102BC01CD0120E012
:103B600030E044EB52EC0E94C304882349F4809176
:103B7000F1019091F20184609093F2018093F10140
:103B800080916C02C82EDD2480916E0290916F02AC
:103B9000A0917002B0917102BC01CD0125E33AEF12
:103BA0004EE85CE30E941D03DC01CB017C018D012A
:103BB0002091F3013091F4014091F5015091F6010B
:103BC00060E070E080E89FE30E941704DC01CB0115
:103BD0009C01AD01C801B7010E941D03DC01CB01AE
:103BE000BC01CD010E9462239B01AC01C601880F7C
:103BF000991F880F991FFC01EC5BFD4F20833183D7
:103C00004283538389E20E943837E7C18091F101F2
:103C10009091F20180709470009711F180916C0284
:103C2000082F10E080916E0290916F02A0917002B7
:103C3000B0917102BC01CD010E9497239B01AC01A0
:103C4000C801880F991F880F991FFC01EC5BFD4F7D
:103C5000208331834283538389E20E943837BDC178
:103C60008091720290917302807290700097E1F1DE
:103C700080916C02082F10E080916E0290916F028B
:103C8000A0917002B0917102BC01CD010E94F42498
:103C9000DC01CB01BC01CD0120EE3EE245E652E461
:103CA0000E941D03DC01CB012091F3013091F4014E
:103CB0004091F5015091F601BC01CD010E941D0318
:103CC000DC01CB019C01AD01C801880F991F880F51
:103CD000991FFC01EC5BFD4F2083318342835383AA
:103CE00089E20E94383779C1809172029091730203
:103CF00088709070009709F469C080916E0290916D
:103D00006F02A0917002B0917102BC01CD0120E060
:103D100030E040E85FE30E942305181694F080919C
:103D20006E0290916F02A0917002B0917102BC017D
:103D3000CD0120E030E040E85FEB0E94830588235E
:103D40004CF48091F1019091F20184609093F20122
:103D50008093F10180916C02082F10E080916E0237
:103D600090916F02A0917002B0917102BC01CD01DF
:103D70000E940728DC01CB01BC01CD0120EE3EE210
:103D800045E652E40E941D03DC01CB012091F301C2
:103D90003091F4014091F5015091F601BC01CD0143
:103DA0000E941D03DC01CB019C01AD01C801880FFD
:103DB000991F880F991FFC01EC5BFD4F2083318315
:103DC0004283538389E20E94383707C1809172028F
:103DD0009091730280719070009709F469C080918E
:103DE0006E0290916F02A0917002B0917102BC01BD
:103DF000CD0120E030E040E85FE30E942305181683
:103E000094F080916E0290916F02A0917002B09137
:103E10007102BC01CD0120E030E040E85FEB0E9480
:103E2000830588234CF48091F1019091F201846024
:103E30009093F2018093F10180916C02082F10E0C1
:103E400080916E0290916F02A0917002B091710208
:103E5000BC01CD010E944428DC01CB01BC01CD0195
:103E600020EE3EE245E652E40E941D03DC01CB0158
:103E70002091F3013091F4014091F5015091F60148
:103E8000BC01CD010E941D03DC01CB019C01AD01F1
:103E9000C801880F991F880F991FFC01EC5BFD4F2B
:103EA000208331834283538389E20E94383795C04F
:103EB000809172029091730281709070882311F149
:103EC00080916C02082F10E080916E0290916F0239
:103ED000A0917002B0917102BC01CD010E94692ACB
:103EE0009B01AC01C801880F991F880F991FFC0125
:103EF000EC5BFD4F208331834283538389E20E9430
:103F000038376BC08091720290917302827090700A
:103F1000009711F180916C02082F10E080916E02E1
:103F200090916F02A0917002B0917102BC01CD011D
:103F30000E94A92A9B01AC01C801880F991F880F14
:103F4000991FFC01EC5BFD4F208331834283538337
:103F500089E20E94383741C08091720290917302C9
:103F600084709070009711F180916C02082F10E01E
:103F700080916E0290916F02A0917002B0917102D7
:103F8000BC01CD010E94E92A9B01AC01C801880F48
:103F9000991F880F991FFC01EC5BFD4F2083318333
:103FA0004283538389E20E94383717C080916C02A4
:103FB000882F90E020916E0230916F024091700244
:103FC00050917102880F991F880F991FFC01EC5BBB
:103FD000FD4F208331834283538380916C028F5F36
:103FE00080936C028091F1019091F2018070987041
:103FF000009729F0809179028F5F809379028091F8
:10400000F1019091F2018F7B9093F2018093F10185
:104010008091F1019091F2018F779093F20180935A
:10402000F1018091F1019091F2018F7D9093F20165
:104030008093F1018091F1019091F2019E7F909324
:10404000F2018093F1018091F1019091F2019B7F47
:104050009093F2018093F10180917202909173022A
:104060008F7D90937302809372028091720290917F
:1040700073028F7E9093730280937202809172021A
:1040800090917302877F9093730280937202809164
:104090007202909173028E7F9093730280937202EA
:1040A00080917202909173028D7F9093730280933E
:1040B000720280917202909173028B7F90937302CF
:1040C000809372028091F1019091F201977F909319
:1040D000F2018093F1018091EF018B3269F48091BC
:1040E0006D02882F90E0FC01EC59FD4F8BE280833C
:1040F0008BE20E94383743C08091EF018D3269F422
:1041000080916D02882F90E0FC01EC59FD4F8DE20B
:1041100080838DE20E94383732C08091EF018A326D
:1041200069F480916D02882F90E0FC01EC59FD4FFD
:104130008AE280838AE20E94383721C08091EF01B1
:104140008F3269F480916D02882F90E0FC01EC5968
:10415000FD4F8FE280838FE20E94383710C080913C
:10416000EF018B3361F480916D02882F90E0FC01A8
:10417000EC59FD4F8BE380838EE50E9438378091A8
:104180006D028F5F80936D0280E090E0A0E0B0E070
:1041900080936E0290936F02A0937002B0937102AD
:1041A0008091F1019091F201877F9093F2018093C9
:1041B000F1018091F1019091F201977F9093F201CA
:1041C0008093F10180917902813110F40C940A09F5
:1041D00010927C020DC088E10E94503780917802D5
:1041E0008F5F8093780280917C028F5F80937C0246
:1041F00080917C02282F30E080917902882F90E016
:104200004097281739073CF380E1809379020C949A
:104210000A09DF93CF93CDB7DEB762970FB6F89454
:10422000DEBF0FBECDBF6D837E838F8398874987A6
:104230008985882349F480E090E0A0E8BFE38E8779
:104240009F87A88BB98B6FC08985813049F48D8198
:104250009E81AF81B8858E879F87A88BB98B63C0FD
:1042600089858823DCF48985282F21958D819E817D
:10427000AF81B885BC01CD01422F0E9409219B016D
:10428000AC0160E070E080E89FE30E941704DC016D
:10429000CB018E879F87A88BB98B45C06D817E81AE
:1042A0008F8198852D813E814F8158850E941D0305
:1042B000DC01CB018A879B87AC87BD8789858A8B88
:1042C0009A8999231CF4AA89AF5FAA8B8A8985955C
:1042D000282F6A857B858C859D85422F0E94092128
:1042E000DC01CB0189839A83AB83BC838985817090
:1042F000882349F489819A81AB81BC818E879F870D
:10430000A88BB98B10C06D817E818F8198852981A2
:104310003A814B815C810E941D03DC01CB018E87B9
:104320009F87A88BB98B8E859F85A889B989BC0189
:10433000CD0162960FB6F894DEBF0FBECDBFCF9110
:10434000DF910895DF93CF93CDB7DEB76B970FB6AC
:10435000F894DEBF0FBECDBF6A8B7B8B8C8B9D8BA1
:1043600010C06A897B898C899D892BED3FE049ECDF
:1043700050E40E94F002DC01CB018A8B9B8BAC8B5A
:10438000BD8B6A897B898C899D892BED3FE049E44F
:1043900050EC0E948305882324F310C06A897B892E
:1043A0008C899D892BED3FE049EC50E40E94BF02CF
:1043B000DC01CB018A8B9B8BAC8BBD8B6A897B89A3
:1043C0008C899D892BED3FE049E450E40E94230550
:1043D000181624F3198A1B8E6A897B898C899D891A
:1043E00024EE3BEC46E950E40E942305181614F431
:1043F00021E02B8F81E03B8D8327882361F46A893C
:104400007B898C899D892BED3FE049EC50E40E942B
:104410008305882304F11A8E6A897B898C899D899A
:1044200020E030E040E050E00E948305882314F44F
:1044300041E04A8F81E05A8D85278823F1F46A890B
:104440007B898C899D892BED3FE049EC5FEB0E94D5
:104450005305882394F06A897B898C899D892BED8B
:104460003FE049EC50E40E94F002DC01CB018A8B72
:104470009B8BAC8BBD8B82E0898B6A897B898C8915
:104480009D8920E030E040E050E00E9423051816AE
:10449000F4F46A897B898C899D892BED3FE049EC96
:1044A0005FE30E948305882394F46BED7FE089E449
:1044B00090E42A893B894C895D890E94BF02DC0116
:1044C000CB018A8B9B8BAC8BBD8B81E0898B80E091
:1044D00090E0A0E8BFE38D879E87AF87B88B80E030
:1044E00090E0A0E8BFE389879A87AB87BC876A8999
:1044F0007B898C899D892A893B894C895D890E94A9
:104500001D03DC01CB018D839E83AF83B8878FEFC2
:104510009FEF9C838B8382E090E09A8389835FC0C6
:1045200089819A819C012150304089819A81DC01E6
:104530002A9FC0012B9F900D3A9F900D1124AA270E
:1045400097FDA095BA2FBC01CD010E94B3059B0138
:10455000AC016D817E818F8198850E941704DC01FA
:10456000CB019C01AD0169857A858B859C850E9474
:104570001D03DC01CB0189879A87AB87BC878B81C0
:104580009C81AA2797FDA095BA2FBC01CD010E945E
:10459000B305DC01CB01BC01CD0129853A854B85F2
:1045A0005C850E941D03DC01CB019C01AD016D8582
:1045B0007E858F8598890E94F002DC01CB018D8772
:1045C0009E87AF87B88B8B819C81909581959F4FFB
:1045D0009C838B8389819A8102969A8389838981BE
:1045E0009A81853191050CF49BCF6D857E858F85F1
:1045F000988927E137EB41ED58EB0E942305181607
:10460000ACF46D857E858F85988927E137EB41ED88
:1046100058E30E94830588234CF420E030E040E01A
:1046200050E02E8B3F8B488F598F17C0898981307E
:1046300061F48D859E85AF85B8899C01AD01505888
:104640002E8B3F8B488F598F08C08D859E85AF85F7
:10465000B8898E8B9F8BA88FB98F8E899F89A88DE3
:10466000B98DBC01CD016B960FB6F894DEBF0FBEBD
:10467000CDBFCF91DF910895DF93CF9300D000D0CD
:10468000CDB7DEB769837A838B839C8369817A8116
:104690008B819C812BED3FE049EC5FE30E94F002AF
:1046A000DC01CB01BC01CD010E94A221DC01CB01C8
:1046B000B058BC01CD010F900F900F900F90CF918B
:1046C000DF910895EF92FF920F931F93DF93CF93A3
:1046D00000D000D0CDB7DEB769837A838B839C830B
:1046E00089819A81AB81BC81BC01CD010E943C23B0
:1046F0007B018C0189819A81AB81BC81BC01CD0198
:104700000E94A2219B01AC01C801B7010E941704BD
:10471000DC01CB01BC01CD010F900F900F900F90E9
:10472000CF91DF911F910F91FF90EF900895EF923D
:10473000FF920F931F93DF93CF93CDB7DEB76997A7
:104740000FB6F894DEBF0FBECDBF698B7A8B8B8B13
:104750009C8B188A1F861E861D8669897A898B899B
:104760009C8920E030E040E050E00E9423051816CC
:1047700024F481E090E09E878D8780E090E0A0E8BF
:10478000BFE389879A87AB87BC8780E090E0A0E889
:10479000BFE38D839E83AF83B88780E090E0A0E87D
:1047A000BFE389839A83AB83BC838D859E85009705
:1047B000A1F489899A89AB89BC89B058898B9A8B75
:1047C000AB8BBC8B69897A898B899C8920E030E02E
:1047D00040E050E00E94F304898F69817A818B81E7
:1047E0009C812CEA35EC47E257E30E94F002DC01A1
:1047F000CB017C018D016D817E818F819885298916
:104800003A894B895C890E941D03DC01CB018D83B1
:104810009E83AF83B8878F8598890196988B8F8701
:104820008F859889AA2797FDA095BA2FBC01CD0145
:104830000E94B3059B01AC0169857A858B859C85B7
:104840000E941D03DC01CB0189879A87AB87BC8757
:104850006D817E818F81988529853A854B855C8520
:104860000E941704DC01CB019C01AD0169817A81B2
:104870008B819C810E94F002DC01CB0189839A83A9
:10488000AB83BC83C801B70129813A814B815C812C
:104890000E94830588230CF4A0CF8D859E85009708
:1048A00089F460E070E080E89FE329813A814B81E0
:1048B0005C810E941704DC01CB018D8B9E8BAF8B3A
:1048C000B88F08C089819A81AB81BC818D8B9E8B0A
:1048D000AF8BB88F8D899E89AF89B88DBC01CD0112
:1048E00069960FB6F894DEBF0FBECDBFCF91DF91B2
:1048F0001F910F91FF90EF900895DF93CF93CDB765
:10490000DEB760970FB6F894DEBF0FBECDBF6D87E0
:104910007E878F87988B8D859E85AF85B88989879F
:104920009A87AB87BC8780E090E0A0E8BFE38D83E7
:104930009E83AF83B8878DEB97E3A6E8B5E38983C1
:104940009A83AB83BC832AC069857A858B859C85D5
:104950002D813E814F8158850E94F002DC01CB0100
:10496000BC01CD0120E030E040E050E40E9417049B
:10497000DC01CB0189879A87AB87BC876D857E85F3
:104980008F85988929853A854B855C850E94170417
:10499000DC01CB018D839E83AF83B88769857A85DF
:1049A0008B859C852D813E814F8158850E94BF0259
:1049B000DC01CB01BC01CD0129813A814B815C81B5
:1049C0000E94230518160CF4BFCF89859A85AB8504
:1049D000BC85BC01CD0160960FB6F894DEBF0FBE5A
:1049E000CDBFCF91DF910895EF92FF920F931F9368
:1049F000DF93CF93CDB7DEB7AC970FB6F894DEBF99
:104A00000FBECDBF6D8F7E8F8F8F98A36D8D7E8DE6
:104A10008F8D98A120E034E244E759E40E945305C9
:104A200088234CF04BED5FE069EC7FE349A75AA780
:104A30006BA77CA7D9C26D8D7E8D8F8D98A120E04C
:104A400030E543EC57EC0E94830588234CF46BED72
:104A50007FE089EC9FEB69A77AA78BA79CA7C4C2CC
:104A60008D8D9E8DAF8DB8A1BF778D8B9E8BAF8BBB
:104A7000B88F6D897E898F89988D20E030E040E87D
:104A80005FE30E94230518168CF460E070E080E874
:104A90009FE32D893E894F89588D0E941704DC01C0
:104AA000CB018DA39EA3AFA3B8A708C08D899E8913
:104AB000AF89B88D8DA39EA3AFA3B8A74DA15EA16A
:104AC0006FA178A5498F5A8F6B8F7C8F698D7A8DF6
:104AD0008B8D9C8D298D3A8D4B8D5C8D0E941D0395
:104AE000DC01CB018D839E83AF83B8876D817E818E
:104AF0008F8198852D813E814F8158850E941D03AD
:104B0000DC01CB0189879A87AB87BC8789EE90EF60
:104B1000A9EAB7EB898B9A8BAB8BBC8B8FE19BEDB2
:104B2000A9E6B9E389839A83AB83BC8389899A898F
:104B3000AB89BC8929853A854B855C85BC01CD0153
:104B40000F2EF4ECEF2EF3E9FF2EF8E90F2FFAEB1E
:104B50001F2FF02D0E942E3CDC01CB01898B9A8BFC
:104B6000AB8BBC8B89819A81AB81BC8129853A85CD
:104B70004B855C85BC01CD010F2EF6E8EF2EF4EBE2
:104B8000FF2EFCE70F2FFBE31F2FF02D0E942E3C82
:104B9000DC01CB0189839A83AB83BC8389899A89A1
:104BA000AB89BC8929853A854B855C85BC01CD01E3
:104BB0000F2EF5EDEF2EFAE7FF2EF6E10F2FFCEBAF
:104BC0001F2FF02D0E942E3CDC01CB01898B9A8B8C
:104BD000AB8BBC8B89819A81AB81BC8129853A855D
:104BE0004B855C85BC01CD010F2EF6E8EF2EF5E17B
:104BF000FF2EFBE80F2FFCE31F2FF02D0E942E3C11
:104C0000DC01CB0189839A83AB83BC8389899A8930
:104C1000AB89BC8929853A854B855C85BC01CD0172
:104C20000F2EF8EBEF2EF2E9FF2EF3ED0F2FFCEB3A
:104C30001F2FF02D0E942E3CDC01CB01898B9A8B1B
:104C4000AB8BBC8B89819A81AB81BC8129853A85EC
:104C50004B855C85BC01CD010F2EF0EBEF2EFAE801
:104C6000FF2EFBE00F2FFDE31F2FF02D0E942E3CA7
:104C7000DC01CB0189839A83AB83BC8389899A89C0
:104C8000AB89BC8929853A854B855C85BC01CD0102
:104C90000F2EFCE6EF2EF2EAFF2EF7E20F2FFDEBD0
:104CA0001F2FF02D0E942E3CDC01CB01898B9A8BAB
:104CB000AB8BBC8B89819A81AB81BC8129853A857C
:104CC0004B855C85BC01CD010F2EFAEEEF2EF1E78E
:104CD000FF2EFFE30F2FFDE31F2FF02D0E942E3C30
:104CE000DC01CB0189839A83AB83BC8389899A8950
:104CF000AB89BC8929853A854B855C85BC01CD0192
:104D00000F2EF7E5EF2EF9E9FF2EF6E50F2FFDEB5D
:104D10001F2FF02D0E942E3CDC01CB01898B9A8B3A
:104D2000AB8BBC8B89819A81AB81BC8129853A850B
:104D30004B855C85BC01CD010F2EFAE0EF2EFCEB1C
:104D4000FF2EF0E70F2FFDE31F2FF02D0E942E3CCA
:104D5000DC01CB0189839A83AB83BC8389899A89DF
:104D6000AB89BC8929853A854B855C85BC01CD0121
:104D70000F2EFEE4EF2EF4E8FF2EF8E80F2FFDEBE8
:104D80001F2FF02D0E942E3CDC01CB01898B9A8BCA
:104D9000AB8BBC8B89819A81AB81BC8129853A859B
:104DA0004B855C85BC01CD010F2EF9E5EF2EF9E8AE
:104DB000FF2EFDE90F2FFDE31F2FF02D0E942E3C4B
:104DC000DC01CB0189839A83AB83BC8389899A896F
:104DD000AB89BC892D813E814F815885E980FA805D
:104DE0000B811C81BC01CD010E942E3CDC01CB015A
:104DF000898B9A8BAB8BBC8B89899A89AB89BC894F
:104E00002D813E814F815885BC01CD010F2EF1E8E7
:104E1000EF2EFEE2FF2EFAEB0F2FFDEB1F2FF02DF2
:104E20000E942E3CDC01CB01898B9A8BAB8BBC8B17
:104E300089899A89AB89BC892D813E814F815885AA
:104E4000BC01CD010F2EF8E3EF2EFEE8FF2EF3EEAE
:104E50000F2FFDE31F2FF02D0E942E3CDC01CB0114
:104E6000898B9A8BAB8BBC8B89899A89AB89BC89DE
:104E70002D813E814F815885BC01CD010F2EF5E279
:104E8000EF2EF9E4FF2EF2E10F2FFEEB1F2FF02D96
:104E90000E942E3CDC01CB01898B9A8BAB8BBC8BA7
:104EA00089899A89AB89BC892D813E814F8158853A
:104EB000BC01CD010F2EFDECEF2EFCECFF2EFCE42F
:104EC0000F2FFEE31F2FF02D0E942E3CDC01CB01A3
:104ED000898B9A8BAB8BBC8B89899A89AB89BC896E
:104EE0002D813E814F815885BC01CD010F2EFBEAFB
:104EF000EF2EFAEAFF2EFAEA0F2FFEEB1F2FF02D0E
:104F00000E942E3CDC01CB01898B9A8BAB8BBC8B36
:104F100069897A898B899C892D813E814F81588549
:104F20000E941D03DC01CB01298D3A8D4B8D5C8DD8
:104F3000E98CFA8C0B8D1C8DBC01CD010E942E3C9E
:104F4000DC01CB01898B9A8BAB8BBC8B6D897E8905
:104F50008F89988D20E030E040E85FE30E942305D0
:104F60001816CCF489899A89AB89BC897C018D019A
:104F700017FB109517F910956AE67DEC8EE69FE316
:104F800027EA3AE847ED5FE30E942E3C69A37AA343
:104F90008BA39CA308C069897A898B899C8969A3A2
:104FA0007AA38BA39CA389A19AA1ABA1BCA18D8755
:104FB0009E87AF87B88B88A1282F20788D859E8506
:104FC000AF85B889AC01BD017F7749A75AA76BA708
:104FD0007CA7222349F069A57AA58BA59CA59058AA
:104FE00069A77AA78BA79CA789A59AA5ABA5BCA5FD
:104FF000BC01CD01AC960FB6F894DEBF0FBECDBF9D
:10500000CF91DF911F910F91FF90EF900895DF9363
:10501000CF9300D000D0CDB7DEB769837A838B837E
:105020009C8369817A818B819C8129813A814B8122
:105030005C810E941D03DC01CB019C01AD0160E09D
:1050400070E080E89FE30E94BF02DC01CB01BC015D
:10505000CD010E94AA3C9B01AC0169817A818B81C0
:105060009C810E941704DC01CB01BC01CD010E9490
:10507000F424DC01CB01BC01CD010F900F900F9007
:105080000F90CF91DF910895DF93CF9300D000D0A0
:10509000CDB7DEB769837A838B839C8389819A81BC
:1050A000AB81BC81BC01CD010E9407289B01AC01F2
:1050B0006BED7FE089EC9FE30E94BF02DC01CB0136
:1050C000BC01CD010F900F900F900F90CF91DF9109
:1050D0000895DF93CF9300D000D0CDB7DEB79A8389
:1050E00089837C836B8310927F023FC089819A8180
:1050F0008F7090708A309105A8F480917F02282FDC
:10510000332727FD30958FE090E0821B930B9C01A5
:105110008B819C81FC01E20FF31F89818F70805D80
:10512000808314C080917F02282F332727FD30957C
:105130008FE090E0821B930B9C018B819C81FC0192
:10514000E20FF31F89818F70895C808389819A8146
:10515000929582958F7089279F7089279A8389837A
:1051600080917F028F5F80937F0289819A8100976F
:1051700009F0BCCF0F900F900F900F90CF91DF915F
:105180000895DF93CF9300D000D0CDB7DEB79A83D8
:1051900089837C836B8310927F0223C080917F027E
:1051A000282F332727FD30958FE090E0821B930B4B
:1051B0009C018B819C81FC01E20FF31F8981877028
:1051C000805D808389819A8196958795969587954C
:1051D000969587959A83898380917F028F5F8093CC
:1051E0007F0289819A810097C9F60F900F900F90E6
:1051F0000F90CF91DF910895DF93CF9300D000D02F
:10520000CDB7DEB79A8389837C836B8310927F024C
:105210001FC080917F02282F332727FD30958FE014
:1052200090E0821B930B9C018B819C81FC01E20F1F
:10523000F31F89818170805D808389819A81969531
:1052400087959A83898380917F028F5F80937F0205
:1052500089819A810097E9F60F900F900F900F9037
:10526000CF91DF910895DF93CF9300D000D00F92BC
:10527000CDB7DEB79D838C831B821A828FE080932B
:105280007F023FC080917F02282F332727FD309572
:105290008C819D81FC01E20FF31F808189838981CC
:1052A000803338F089818A3320F48981805389835F
:1052B00013C08981813638F08981873620F489814D
:1052C0008755898309C08981813430F08981873489
:1052D00018F48981875389838A819B819C01229557
:1052E0003295307F3227207F32278981882F90E0C6
:1052F000822B932B9B838A8380917F0281508093A2
:105300007F0280917F0288230CF0BCCF8A819B8131
:105310000F900F900F900F900F90CF91DF91089505
:105320002F923F924F925F926F927F928F929F92B5
:10533000AF92BF92CF92DF92EF92FF920F931F93A3
:10534000DF93CF93CDB7DEB72B970FB6F894DEBFC0
:105350000FBECDBF9B878A871A821B821C821D824B
:105360001E821F82188619868FE080937F0255C0A7
:1053700080917F02282F332727FD30958A859B85D2
:10538000FC01E20FF31F808189832A813B814C81DC
:105390005D816E817F818885998503E00E94C800C8
:1053A000A22EB32EC42ED52EE62EF72E082F192F9F
:1053B0002A2C3B2C4C2C5D2C6E2C7F2C802E912E7D
:1053C0008981882F90E0DC01D097FD01FF0FEE0B63
:1053D000FE2F9D014E2F5E2F6E2F7E2F8E2F9E2F24
:1053E000E22DE22BEA83E32DE32BEB83E42DE42B88
:1053F000EC83E52DE52BED83E62DE62BEE83E72D03
:10540000E72BEF83E82DE82BE887892D892B898707
:1054100080917F02815080937F0280917F02882358
:105420000CF0A6CF8A819B812B960FB6F894DEBF35
:105430000FBECDBFCF91DF911F910F91FF90EF90E5
:10544000DF90CF90BF90AF909F908F907F906F90A4
:105450005F904F903F902F900895DF93CF9300D0AF
:1054600000D00F92CDB7DEB79D838C831B821A824A
:105470008FE080937F021FC080917F02282F332707
:1054800027FD30958C819D81FC01E20FF31F808107
:1054900089838A819B819C01220F331F8981882FF8
:1054A00090E0C097822B932B9B838A8380917F020D
:1054B000815080937F0280917F028823ECF68A815D
:1054C0009B810F900F900F900F900F90CF91DF91D5
:1054D0000895EF92FF920F931F93DF93CF9300D025
:1054E00000D0CDB7DEB769837A838B839C838981B3
:1054F0009A81AB81BC81BC01CD010E9497237B01C5
:105500008C0189819A81AB81BC81B058BC01CD01ED
:105510000E9497239B01AC01C801B7010E94BF0202
:10552000DC01CB01BC01CD0120E030E040E050E4E3
:105530000E941704DC01CB01BC01CD010F900F903C
:105540000F900F90CF91DF911F910F91FF90EF90EF
:105550000895EF92FF920F931F93DF93CF9300D0A4
:1055600000D0CDB7DEB769837A838B839C83898132
:105570009A81AB81BC81BC01CD010E9497237B0144
:105580008C0189819A81AB81BC81B058BC01CD016D
:105590000E9497239B01AC01C801B7010E94F00251
:1055A000DC01CB01BC01CD0120E030E040E050E463
:1055B0000E941704DC01CB01BC01CD010F900F90BC
:1055C0000F900F90CF91DF911F910F91FF90EF906F
:1055D0000895EF92FF920F931F93DF93CF9300D024
:1055E00000D0CDB7DEB769837A838B839C838981B2
:1055F0009A81AB81BC81BC01CD010E94692A7B01EB
:105600008C0189819A81AB81BC81BC01CD010E9452
:10561000A92A9B01AC01C801B7010E941704DC0153
:10562000CB01BC01CD010F900F900F900F90CF9147
:10563000DF911F910F91FF90EF900895DF93CF932B
:105640000F92CDB7DEB71982EAE3F0E08FEF8083E7
:10565000E7E3F0E087E08083E4E3F0E087E980833C
:10566000E1E3F0E08FE98083EBE3F0E080EF80831B
:10567000E8E3F0E08AEF8083E5E3F0E089E580830A
:10568000E2E3F0E082E5808381E0898389810F9005
:10569000CF91DF910895DF93CF9300D000D000D059
:1056A000CDB7DEB78A836B834C8319828A818430BD
:1056B00008F0D1C08B81883008F0CDC08C81823059
:1056C00008F0C9C08A81282F30E03E832D836D8188
:1056D0007E816130710509F441C08D819E818230E7
:1056E000910534F42D813E812115310571F0B0C052
:1056F0006D817E816230710509F459C08D819E8172
:105700008330910509F47CC0A3C0AAE3B0E0EAE3CA
:10571000F0E08081482F8B81282F30E081E090E0FD
:1057200002C0880F991F2A95E2F7809584238C93F5
:10573000AAE3B0E0EAE3F0E08081482F8C81282FD3
:1057400030E08B81882F90E0B90102C0660F771F8F
:105750008A95E2F7CB01842B8C937AC0A7E3B0E063
:10576000E7E3F0E08081482F8B81282F30E081E053
:1057700090E002C0880F991F2A95E2F78095842354
:105780008C93A7E3B0E0E7E3F0E08081482F8C81C1
:10579000282F30E08B81882F90E0B90102C0660F7E
:1057A000771F8A95E2F7CB01842B8C9351C0A4E339
:1057B000B0E0E4E3F0E08081482F8B81282F30E0D7
:1057C00081E090E002C0880F991F2A95E2F780954A
:1057D00084238C93A4E3B0E0E4E3F0E08081482FDD
:1057E0008C81282F30E08B81882F90E0B90102C096
:1057F000660F771F8A95E2F7CB01842B8C9328C024
:10580000A1E3B0E0E1E3F0E08081482F8B81282F15
:1058100030E081E090E002C0880F991F2A95E2F7FE
:10582000809584238C93A1E3B0E0E1E3F0E08081F4
:10583000482F8C81282F30E08B81882F90E0B90190
:1058400002C0660F771F8A95E2F7CB01842B8C93F9
:1058500081E0898302C083E08983898126960FB61F
:10586000F894DEBF0FBECDBFCF91DF910895DF93D7
:10587000CF9300D000D000D0CDB7DEB78A836B8342
:105880004C8319828A81843008F0D1C08B818830A2
:1058900008F0CDC08C81823008F0C9C08A81282FE1
:1058A00030E03E832D836D817E816130710509F486
:1058B00041C08D819E818230910534F42D813E81DD
:1058C0002115310571F0B0C06D817E8162307105A6
:1058D00009F459C08D819E818330910509F47CC003
:1058E000A3C0ABE3B0E0EBE3F0E08081482F8B8115
:1058F000282F30E081E090E002C0880F991F2A95A0
:10590000E2F7809584238C93ABE3B0E0EBE3F0E027
:105910008081482F8C81282F30E08B81882F90E068
:10592000B90102C0660F771F8A95E2F7CB01842B7D
:105930008C937AC0A8E3B0E0E8E3F0E08081482FE0
:105940008B81282F30E081E090E002C0880F991F02
:105950002A95E2F7809584238C93A8E3B0E0E8E3EE
:10596000F0E08081482F8C81282F30E08B81882FB8
:1059700090E0B90102C0660F771F8A95E2F7CB016C
:10598000842B8C9351C0A5E3B0E0E5E3F0E0808187
:10599000482F8B81282F30E081E090E002C0880FF3
:1059A000991F2A95E2F7809584238C93A5E3B0E0B4
:1059B000E5E3F0E08081482F8C81282F30E08B8157
:1059C000882F90E0B90102C0660F771F8A95E2F731
:1059D000CB01842B8C9328C0A2E3B0E0E2E3F0E09B
:1059E0008081482F8B81282F30E081E090E002C039
:1059F000880F991F2A95E2F7809584238C93A2E360
:105A0000B0E0E2E3F0E08081482F8C81282F30E085
:105A10008B81882F90E0B90102C0660F771F8A95AD
:105A2000E2F7CB01842B8C9381E0898302C083E071
:105A30008983898126960FB6F894DEBF0FBECDBF4D
:105A4000CF91DF910895DF93CF93CDB7DEB727973E
:105A50000FB6F894DEBF0FBECDBF8A836B835D8324
:105A60004C8319828C819D81009709F47EC08A81C4
:105A7000843008F077C08B81883008F073C08A8149
:105A8000282F30E03F832E834E815F8141305105C6
:105A900059F18E819F818230910534F42E813F81AE
:105AA0002115310569F05BC04E815F81423051059F
:105AB00079F18E819F818330910509F43DC04FC0FB
:105AC000E9E3F0E08081282F30E08B81882F90E09F
:105AD000A90102C0559547958A95E2F7CA018170E0
